{
  "transactions": [
    {
      "hash": "0xc4ca6c3dba18d5c120b9c8de1f11834d97733f4398129b81742a69e84c6e74f0",
      "transactionType": "CALL",
      "contractName": "VRFCoordinatorV2_5Mock",
      "contractAddress": "0x7aacc5300ec7ac58fe86645d08f21b1becadf99a",
      "function": "createSubscription()",
      "arguments": [],
      "transaction": {
        "from": "0xffd4ec9948aeb1e78390d71756870c1f7ea22f1f",
        "to": "0x7aacc5300ec7ac58fe86645d08f21b1becadf99a",
        "gas": "0x71a6",
        "value": "0x0",
        "input": "0xa21a23e4",
        "nonce": "0x36",
        "chainId": "0xaa36a7"
      },
      "additionalContracts": [],
      "isFixedGasLimit": false
    },
    {
      "hash": "0xf0f34f77b65f714be6fdbe46f983caab40487dbd3eb31ee2d9b3c09162e67d0c",
      "transactionType": "CALL",
      "contractName": "LinkToken",
      "contractAddress": "0x779877a7b0d9e8603169ddbd7836e478b4624789",
      "function": "transferAndCall(address,uint256,bytes)",
      "arguments": [
        "0x9DdfaCa8183c41ad55329BdeeD9F6A8d53168B1B",
        "1000000000000000000",
        "0x80f130544417ff61c8f487e479fa5e368617351a84bf5f2be9a5075833fcc1ad"
      ],
      "transaction": {
        "from": "0xffd4ec9948aeb1e78390d71756870c1f7ea22f1f",
        "to": "0x779877a7b0d9e8603169ddbd7836e478b4624789",
        "gas": "0x1c1ff",
        "value": "0x0",
        "input": "0x4000aea00000000000000000000000009ddfaca8183c41ad55329bdeed9f6a8d53168b1b0000000000000000000000000000000000000000000000000de0b6b3a76400000000000000000000000000000000000000000000000000000000000000000060000000000000000000000000000000000000000000000000000000000000002080f130544417ff61c8f487e479fa5e368617351a84bf5f2be9a5075833fcc1ad",
        "nonce": "0x37",
        "chainId": "0xaa36a7"
      },
      "additionalContracts": [],
      "isFixedGasLimit": false
    }
  ],
  "receipts": [
    {
      "status": "0x1",
      "cumulativeGasUsed": "0x536a98",
      "logs": [],
      "logsBloom": "0x00000000000000000000000000000000000000000000000000000000000000000000000000000000000000000000000000000000000000000000000000000000000000000000000000000000000000000000000000000000000000000000000000000000000000000000000000000000000000000000000000000000000000000000000000000000000000000000000000000000000000000000000000000000000000000000000000000000000000000000000000000000000000000000000000000000000000000000000000000000000000000000000000000000000000000000000000000000000000000000000000000000000000000000000000000000",
      "type": "0x2",
      "transactionHash": "0xc4ca6c3dba18d5c120b9c8de1f11834d97733f4398129b81742a69e84c6e74f0",
      "transactionIndex": "0x32",
      "blockHash": "0x78eb80003df45485cfd5e3c99ce74a3cd3b9582801699303e7ba385e50f4beed",
      "blockNumber": "0x6d0074",
      "gasUsed": "0x5248",
      "effectiveGasPrice": "0x2e5f13f69",
      "from": "0xffd4ec9948aeb1e78390d71756870c1f7ea22f1f",
      "to": "0x7aacc5300ec7ac58fe86645d08f21b1becadf99a",
      "contractAddress": null
    },
    {
      "status": "0x1",
      "cumulativeGasUsed": "0x549e49",
      "logs": [
        {
          "address": "0x779877a7b0d9e8603169ddbd7836e478b4624789",
          "topics": [
            "0xddf252ad1be2c89b69c2b068fc378daa952ba7f163c4a11628f55a4df523b3ef",
            "0x000000000000000000000000ffd4ec9948aeb1e78390d71756870c1f7ea22f1f",
            "0x0000000000000000000000009ddfaca8183c41ad55329bdeed9f6a8d53168b1b"
          ],
          "data": "0x0000000000000000000000000000000000000000000000000de0b6b3a7640000",
          "blockHash": "0x78eb80003df45485cfd5e3c99ce74a3cd3b9582801699303e7ba385e50f4beed",
          "blockNumber": "0x6d0074",
          "transactionHash": "0xf0f34f77b65f714be6fdbe46f983caab40487dbd3eb31ee2d9b3c09162e67d0c",
          "transactionIndex": "0x33",
          "logIndex": "0x2f",
          "removed": false
        },
        {
          "address": "0x779877a7b0d9e8603169ddbd7836e478b4624789",
          "topics": [
            "0xe19260aff97b920c7df27010903aeb9c8d2be5d310a2c67824cf3f15396e4c16",
            "0x000000000000000000000000ffd4ec9948aeb1e78390d71756870c1f7ea22f1f",
            "0x0000000000000000000000009ddfaca8183c41ad55329bdeed9f6a8d53168b1b"
          ],
          "data": "0x0000000000000000000000000000000000000000000000000de0b6b3a76400000000000000000000000000000000000000000000000000000000000000000040000000000000000000000000000000000000000000000000000000000000002080f130544417ff61c8f487e479fa5e368617351a84bf5f2be9a5075833fcc1ad",
          "blockHash": "0x78eb80003df45485cfd5e3c99ce74a3cd3b9582801699303e7ba385e50f4beed",
          "blockNumber": "0x6d0074",
          "transactionHash": "0xf0f34f77b65f714be6fdbe46f983caab40487dbd3eb31ee2d9b3c09162e67d0c",
          "transactionIndex": "0x33",
          "logIndex": "0x30",
          "removed": false
        },
        {
          "address": "0x9ddfaca8183c41ad55329bdeed9f6a8d53168b1b",
          "topics": [
            "0x1ced9348ff549fceab2ac57cd3a9de38edaaab274b725ee82c23e8fc8c4eec7a",
            "0x80f130544417ff61c8f487e479fa5e368617351a84bf5f2be9a5075833fcc1ad"
          ],
          "data": "0x00000000000000000000000000000000000000000000000000000000000000000000000000000000000000000000000000000000000000000de0b6b3a7640000",
          "blockHash": "0x78eb80003df45485cfd5e3c99ce74a3cd3b9582801699303e7ba385e50f4beed",
          "blockNumber": "0x6d0074",
          "transactionHash": "0xf0f34f77b65f714be6fdbe46f983caab40487dbd3eb31ee2d9b3c09162e67d0c",
          "transactionIndex": "0x33",
          "logIndex": "0x31",
          "removed": false
        }
      ],
      "logsBloom": "0x00000004000000000000000000000000000000000020000000000000020000000000000000000000000000000000000000000000000000000000000000000000000000000000000000000008000000000000000000000000000020000020000008000000000000000000000000000000000000000020000000000010000040000000000000000000020000410000800000000020000000000000000000000000020000000000000000000000010000000000000000000000000004000000000000000002000000000000000000000000040000000000000100000000040000000010000000000000800000000000000000000000000000000000000000000000",
      "type": "0x2",
      "transactionHash": "0xf0f34f77b65f714be6fdbe46f983caab40487dbd3eb31ee2d9b3c09162e67d0c",
      "transactionIndex": "0x33",
      "blockHash": "0x78eb80003df45485cfd5e3c99ce74a3cd3b9582801699303e7ba385e50f4beed",
      "blockNumber": "0x6d0074",
      "gasUsed": "0x133b1",
      "effectiveGasPrice": "0x2e5f13f69",
      "from": "0xffd4ec9948aeb1e78390d71756870c1f7ea22f1f",
      "to": "0x779877a7b0d9e8603169ddbd7836e478b4624789",
      "contractAddress": null
    }
  ],
  "libraries": [],
  "pending": [],
  "returns": {},
  "timestamp": 1732459453,
  "chain": 11155111,
  "commit": "5dabb96"
}