{
  "transactions": [
    {
      "hash": "0xd040cbaebd5b161c39d08e86de871a27381bfcb6e32da26cc755273bd68a01f2",
      "transactionType": "CALL",
      "contractName": "VRFCoordinatorV2_5Mock",
      "contractAddress": "0x7aacc5300ec7ac58fe86645d08f21b1becadf99a",
      "function": "createSubscription()",
      "arguments": [],
      "transaction": {
        "from": "0xffd4ec9948aeb1e78390d71756870c1f7ea22f1f",
        "to": "0x7aacc5300ec7ac58fe86645d08f21b1becadf99a",
        "gas": "0x71a6",
        "value": "0x0",
        "input": "0xa21a23e4",
        "nonce": "0x3c",
        "chainId": "0xaa36a7"
      },
      "additionalContracts": [],
      "isFixedGasLimit": false
    },
    {
      "hash": "0x883f44cc7ff77141da689530ac22c5d30ddcdef0ef46cdee22775848c8ed4bc4",
      "transactionType": "CALL",
      "contractName": "LinkToken",
      "contractAddress": "0x779877a7b0d9e8603169ddbd7836e478b4624789",
      "function": "transferAndCall(address,uint256,bytes)",
      "arguments": [
        "0x9DdfaCa8183c41ad55329BdeeD9F6A8d53168B1B",
        "3000000000000000000",
        "0x80f130544417ff61c8f487e479fa5e368617351a84bf5f2be9a5075833fcc1ad"
      ],
      "transaction": {
        "from": "0xffd4ec9948aeb1e78390d71756870c1f7ea22f1f",
        "to": "0x779877a7b0d9e8603169ddbd7836e478b4624789",
        "gas": "0x14cbb",
        "value": "0x0",
        "input": "0x4000aea00000000000000000000000009ddfaca8183c41ad55329bdeed9f6a8d53168b1b00000000000000000000000000000000000000000000000029a2241af62c00000000000000000000000000000000000000000000000000000000000000000060000000000000000000000000000000000000000000000000000000000000002080f130544417ff61c8f487e479fa5e368617351a84bf5f2be9a5075833fcc1ad",
        "nonce": "0x3d",
        "chainId": "0xaa36a7"
      },
      "additionalContracts": [],
      "isFixedGasLimit": false
    }
  ],
  "receipts": [
    {
      "status": "0x1",
      "cumulativeGasUsed": "0x548795",
      "logs": [],
      "logsBloom": "0x00000000000000000000000000000000000000000000000000000000000000000000000000000000000000000000000000000000000000000000000000000000000000000000000000000000000000000000000000000000000000000000000000000000000000000000000000000000000000000000000000000000000000000000000000000000000000000000000000000000000000000000000000000000000000000000000000000000000000000000000000000000000000000000000000000000000000000000000000000000000000000000000000000000000000000000000000000000000000000000000000000000000000000000000000000000",
      "type": "0x2",
      "transactionHash": "0xd040cbaebd5b161c39d08e86de871a27381bfcb6e32da26cc755273bd68a01f2",
      "transactionIndex": "0x62",
      "blockHash": "0xf92d95a9b6c598556ec62a518899ed6af74a6bc6dbc6a9e1cf06f6740547cc27",
      "blockNumber": "0x6d01ba",
      "gasUsed": "0x5248",
      "effectiveGasPrice": "0x2053014ff",
      "from": "0xffd4ec9948aeb1e78390d71756870c1f7ea22f1f",
      "to": "0x7aacc5300ec7ac58fe86645d08f21b1becadf99a",
      "contractAddress": null
    },
    {
      "status": "0x1",
      "cumulativeGasUsed": "0x55d222",
      "logs": [
        {
          "address": "0x779877a7b0d9e8603169ddbd7836e478b4624789",
          "topics": [
            "0xddf252ad1be2c89b69c2b068fc378daa952ba7f163c4a11628f55a4df523b3ef",
            "0x000000000000000000000000ffd4ec9948aeb1e78390d71756870c1f7ea22f1f",
            "0x0000000000000000000000009ddfaca8183c41ad55329bdeed9f6a8d53168b1b"
          ],
          "data": "0x00000000000000000000000000000000000000000000000029a2241af62c0000",
          "blockHash": "0xf92d95a9b6c598556ec62a518899ed6af74a6bc6dbc6a9e1cf06f6740547cc27",
          "blockNumber": "0x6d01ba",
          "transactionHash": "0x883f44cc7ff77141da689530ac22c5d30ddcdef0ef46cdee22775848c8ed4bc4",
          "transactionIndex": "0x64",
          "logIndex": "0x40",
          "removed": false
        },
        {
          "address": "0x779877a7b0d9e8603169ddbd7836e478b4624789",
          "topics": [
            "0xe19260aff97b920c7df27010903aeb9c8d2be5d310a2c67824cf3f15396e4c16",
            "0x000000000000000000000000ffd4ec9948aeb1e78390d71756870c1f7ea22f1f",
            "0x0000000000000000000000009ddfaca8183c41ad55329bdeed9f6a8d53168b1b"
          ],
          "data": "0x00000000000000000000000000000000000000000000000029a2241af62c00000000000000000000000000000000000000000000000000000000000000000040000000000000000000000000000000000000000000000000000000000000002080f130544417ff61c8f487e479fa5e368617351a84bf5f2be9a5075833fcc1ad",
          "blockHash": "0xf92d95a9b6c598556ec62a518899ed6af74a6bc6dbc6a9e1cf06f6740547cc27",
          "blockNumber": "0x6d01ba",
          "transactionHash": "0x883f44cc7ff77141da689530ac22c5d30ddcdef0ef46cdee22775848c8ed4bc4",
          "transactionIndex": "0x64",
          "logIndex": "0x41",
          "removed": false
        },
        {
          "address": "0x9ddfaca8183c41ad55329bdeed9f6a8d53168b1b",
          "topics": [
            "0x1ced9348ff549fceab2ac57cd3a9de38edaaab274b725ee82c23e8fc8c4eec7a",
            "0x80f130544417ff61c8f487e479fa5e368617351a84bf5f2be9a5075833fcc1ad"
          ],
          "data": "0x0000000000000000000000000000000000000000000000006124fee993bc00000000000000000000000000000000000000000000000000008ac7230489e80000",
          "blockHash": "0xf92d95a9b6c598556ec62a518899ed6af74a6bc6dbc6a9e1cf06f6740547cc27",
          "blockNumber": "0x6d01ba",
          "transactionHash": "0x883f44cc7ff77141da689530ac22c5d30ddcdef0ef46cdee22775848c8ed4bc4",
          "transactionIndex": "0x64",
          "logIndex": "0x42",
          "removed": false
        }
      ],
      "logsBloom": "0x00000004000000000000000000000000000000000020000000000000020000000000000000000000000000000000000000000000000000000000000000000000000000000000000000000008000000000000000000000000000020000020000008000000000000000000000000000000000000000020000000000010000040000000000000000000020000410000800000000020000000000000000000000000020000000000000000000000010000000000000000000000000004000000000000000002000000000000000000000000040000000000000100000000040000000010000000000000800000000000000000000000000000000000000000000000",
      "type": "0x2",
      "transactionHash": "0x883f44cc7ff77141da689530ac22c5d30ddcdef0ef46cdee22775848c8ed4bc4",
      "transactionIndex": "0x64",
      "blockHash": "0xf92d95a9b6c598556ec62a518899ed6af74a6bc6dbc6a9e1cf06f6740547cc27",
      "blockNumber": "0x6d01ba",
      "gasUsed": "0xf0e5",
      "effectiveGasPrice": "0x2053014ff",
      "from": "0xffd4ec9948aeb1e78390d71756870c1f7ea22f1f",
      "to": "0x779877a7b0d9e8603169ddbd7836e478b4624789",
      "contractAddress": null
    }
  ],
  "libraries": [],
  "pending": [],
  "returns": {},
  "timestamp": 1732463582,
  "chain": 11155111,
  "commit": "5dabb96"
}