{
  "transactions": [
    {
      "hash": "0x35156dde373e71e2112a74ad6ac788a6489fb982cbd7d5b61258baffbfa2d819",
      "transactionType": "CALL",
      "contractName": "VRFCoordinatorV2_5Mock",
      "contractAddress": "0x7aacc5300ec7ac58fe86645d08f21b1becadf99a",
      "function": "createSubscription()",
      "arguments": [],
      "transaction": {
        "from": "0xffd4ec9948aeb1e78390d71756870c1f7ea22f1f",
        "to": "0x7aacc5300ec7ac58fe86645d08f21b1becadf99a",
        "gas": "0x71a6",
        "value": "0x0",
        "input": "0xa21a23e4",
        "nonce": "0x38",
        "chainId": "0xaa36a7"
      },
      "additionalContracts": [],
      "isFixedGasLimit": false
    },
    {
      "hash": "0xe1e640800b127814050904e979d49c3158383a1e2b2843bb33d919b5310bf273",
      "transactionType": "CALL",
      "contractName": "LinkToken",
      "contractAddress": "0x779877a7b0d9e8603169ddbd7836e478b4624789",
      "function": "transferAndCall(address,uint256,bytes)",
      "arguments": [
        "0x9DdfaCa8183c41ad55329BdeeD9F6A8d53168B1B",
        "1000000000000000000",
        "0x80f130544417ff61c8f487e479fa5e368617351a84bf5f2be9a5075833fcc1ad"
      ],
      "transaction": {
        "from": "0xffd4ec9948aeb1e78390d71756870c1f7ea22f1f",
        "to": "0x779877a7b0d9e8603169ddbd7836e478b4624789",
        "gas": "0x14cbb",
        "value": "0x0",
        "input": "0x4000aea00000000000000000000000009ddfaca8183c41ad55329bdeed9f6a8d53168b1b0000000000000000000000000000000000000000000000000de0b6b3a76400000000000000000000000000000000000000000000000000000000000000000060000000000000000000000000000000000000000000000000000000000000002080f130544417ff61c8f487e479fa5e368617351a84bf5f2be9a5075833fcc1ad",
        "nonce": "0x39",
        "chainId": "0xaa36a7"
      },
      "additionalContracts": [],
      "isFixedGasLimit": false
    }
  ],
  "receipts": [
    {
      "status": "0x1",
      "cumulativeGasUsed": "0x9479ea",
      "logs": [],
      "logsBloom": "0x00000000000000000000000000000000000000000000000000000000000000000000000000000000000000000000000000000000000000000000000000000000000000000000000000000000000000000000000000000000000000000000000000000000000000000000000000000000000000000000000000000000000000000000000000000000000000000000000000000000000000000000000000000000000000000000000000000000000000000000000000000000000000000000000000000000000000000000000000000000000000000000000000000000000000000000000000000000000000000000000000000000000000000000000000000000",
      "type": "0x2",
      "transactionHash": "0x35156dde373e71e2112a74ad6ac788a6489fb982cbd7d5b61258baffbfa2d819",
      "transactionIndex": "0xc7",
      "blockHash": "0xdc8878c44895c6b12e3ead13a682bbdb2791dd3f8c612a70632dece532787683",
      "blockNumber": "0x6d00d8",
      "gasUsed": "0x5248",
      "effectiveGasPrice": "0x1cfaf4244",
      "from": "0xffd4ec9948aeb1e78390d71756870c1f7ea22f1f",
      "to": "0x7aacc5300ec7ac58fe86645d08f21b1becadf99a",
      "contractAddress": null
    },
    {
      "status": "0x1",
      "cumulativeGasUsed": "0x9677c7",
      "logs": [
        {
          "address": "0x779877a7b0d9e8603169ddbd7836e478b4624789",
          "topics": [
            "0xddf252ad1be2c89b69c2b068fc378daa952ba7f163c4a11628f55a4df523b3ef",
            "0x000000000000000000000000ffd4ec9948aeb1e78390d71756870c1f7ea22f1f",
            "0x0000000000000000000000009ddfaca8183c41ad55329bdeed9f6a8d53168b1b"
          ],
          "data": "0x0000000000000000000000000000000000000000000000000de0b6b3a7640000",
          "blockHash": "0xdc8878c44895c6b12e3ead13a682bbdb2791dd3f8c612a70632dece532787683",
          "blockNumber": "0x6d00d8",
          "transactionHash": "0xe1e640800b127814050904e979d49c3158383a1e2b2843bb33d919b5310bf273",
          "transactionIndex": "0xcb",
          "logIndex": "0x4e",
          "removed": false
        },
        {
          "address": "0x779877a7b0d9e8603169ddbd7836e478b4624789",
          "topics": [
            "0xe19260aff97b920c7df27010903aeb9c8d2be5d310a2c67824cf3f15396e4c16",
            "0x000000000000000000000000ffd4ec9948aeb1e78390d71756870c1f7ea22f1f",
            "0x0000000000000000000000009ddfaca8183c41ad55329bdeed9f6a8d53168b1b"
          ],
          "data": "0x0000000000000000000000000000000000000000000000000de0b6b3a76400000000000000000000000000000000000000000000000000000000000000000040000000000000000000000000000000000000000000000000000000000000002080f130544417ff61c8f487e479fa5e368617351a84bf5f2be9a5075833fcc1ad",
          "blockHash": "0xdc8878c44895c6b12e3ead13a682bbdb2791dd3f8c612a70632dece532787683",
          "blockNumber": "0x6d00d8",
          "transactionHash": "0xe1e640800b127814050904e979d49c3158383a1e2b2843bb33d919b5310bf273",
          "transactionIndex": "0xcb",
          "logIndex": "0x4f",
          "removed": false
        },
        {
          "address": "0x9ddfaca8183c41ad55329bdeed9f6a8d53168b1b",
          "topics": [
            "0x1ced9348ff549fceab2ac57cd3a9de38edaaab274b725ee82c23e8fc8c4eec7a",
            "0x80f130544417ff61c8f487e479fa5e368617351a84bf5f2be9a5075833fcc1ad"
          ],
          "data": "0x0000000000000000000000000000000000000000000000000de0b6b3a76400000000000000000000000000000000000000000000000000001bc16d674ec80000",
          "blockHash": "0xdc8878c44895c6b12e3ead13a682bbdb2791dd3f8c612a70632dece532787683",
          "blockNumber": "0x6d00d8",
          "transactionHash": "0xe1e640800b127814050904e979d49c3158383a1e2b2843bb33d919b5310bf273",
          "transactionIndex": "0xcb",
          "logIndex": "0x50",
          "removed": false
        }
      ],
      "logsBloom": "0x00000004000000000000000000000000000000000020000000000000020000000000000000000000000000000000000000000000000000000000000000000000000000000000000000000008000000000000000000000000000020000020000008000000000000000000000000000000000000000020000000000010000040000000000000000000020000410000800000000020000000000000000000000000020000000000000000000000010000000000000000000000000004000000000000000002000000000000000000000000040000000000000100000000040000000010000000000000800000000000000000000000000000000000000000000000",
      "type": "0x2",
      "transactionHash": "0xe1e640800b127814050904e979d49c3158383a1e2b2843bb33d919b5310bf273",
      "transactionIndex": "0xcb",
      "blockHash": "0xdc8878c44895c6b12e3ead13a682bbdb2791dd3f8c612a70632dece532787683",
      "blockNumber": "0x6d00d8",
      "gasUsed": "0xf0e5",
      "effectiveGasPrice": "0x1cfaf4244",
      "from": "0xffd4ec9948aeb1e78390d71756870c1f7ea22f1f",
      "to": "0x779877a7b0d9e8603169ddbd7836e478b4624789",
      "contractAddress": null
    }
  ],
  "libraries": [],
  "pending": [],
  "returns": {},
  "timestamp": 1732460750,
  "chain": 11155111,
  "commit": "5dabb96"
}