{
  "transactions": [
    {
      "hash": "0x8ffeaf92ad4d01645542fc93a9377e01c923699bf0811ba89c213443ecffcff9",
      "transactionType": "CALL",
      "contractName": "VRFCoordinatorV2_5Mock",
      "contractAddress": "0x7aacc5300ec7ac58fe86645d08f21b1becadf99a",
      "function": "createSubscription()",
      "arguments": [],
      "transaction": {
        "from": "0xffd4ec9948aeb1e78390d71756870c1f7ea22f1f",
        "to": "0x7aacc5300ec7ac58fe86645d08f21b1becadf99a",
        "gas": "0x71a6",
        "value": "0x0",
        "input": "0xa21a23e4",
        "nonce": "0x3a",
        "chainId": "0xaa36a7"
      },
      "additionalContracts": [],
      "isFixedGasLimit": false
    },
    {
      "hash": "0x74c040a0a6c21ed2a768d265077b655ba8d63ca510354e8fc70f9a42909f97e3",
      "transactionType": "CALL",
      "contractName": "LinkToken",
      "contractAddress": "0x779877a7b0d9e8603169ddbd7836e478b4624789",
      "function": "transferAndCall(address,uint256,bytes)",
      "arguments": [
        "0x9DdfaCa8183c41ad55329BdeeD9F6A8d53168B1B",
        "5000000000000000000",
        "0x80f130544417ff61c8f487e479fa5e368617351a84bf5f2be9a5075833fcc1ad"
      ],
      "transaction": {
        "from": "0xffd4ec9948aeb1e78390d71756870c1f7ea22f1f",
        "to": "0x779877a7b0d9e8603169ddbd7836e478b4624789",
        "gas": "0x14cbb",
        "value": "0x0",
        "input": "0x4000aea00000000000000000000000009ddfaca8183c41ad55329bdeed9f6a8d53168b1b0000000000000000000000000000000000000000000000004563918244f400000000000000000000000000000000000000000000000000000000000000000060000000000000000000000000000000000000000000000000000000000000002080f130544417ff61c8f487e479fa5e368617351a84bf5f2be9a5075833fcc1ad",
        "nonce": "0x3b",
        "chainId": "0xaa36a7"
      },
      "additionalContracts": [],
      "isFixedGasLimit": false
    }
  ],
  "receipts": [
    {
      "status": "0x1",
      "cumulativeGasUsed": "0x1995f6e",
      "logs": [],
      "logsBloom": "0x00000000000000000000000000000000000000000000000000000000000000000000000000000000000000000000000000000000000000000000000000000000000000000000000000000000000000000000000000000000000000000000000000000000000000000000000000000000000000000000000000000000000000000000000000000000000000000000000000000000000000000000000000000000000000000000000000000000000000000000000000000000000000000000000000000000000000000000000000000000000000000000000000000000000000000000000000000000000000000000000000000000000000000000000000000000",
      "type": "0x2",
      "transactionHash": "0x8ffeaf92ad4d01645542fc93a9377e01c923699bf0811ba89c213443ecffcff9",
      "transactionIndex": "0x230",
      "blockHash": "0xdda6118e920f07170614de8c6a46e9e437cef5f0f5f54e9e8a4e6cacb6d2d72c",
      "blockNumber": "0x6d0186",
      "gasUsed": "0x5248",
      "effectiveGasPrice": "0x1db0d13b9",
      "from": "0xffd4ec9948aeb1e78390d71756870c1f7ea22f1f",
      "to": "0x7aacc5300ec7ac58fe86645d08f21b1becadf99a",
      "contractAddress": null
    },
    {
      "status": "0x1",
      "cumulativeGasUsed": "0x19a5053",
      "logs": [
        {
          "address": "0x779877a7b0d9e8603169ddbd7836e478b4624789",
          "topics": [
            "0xddf252ad1be2c89b69c2b068fc378daa952ba7f163c4a11628f55a4df523b3ef",
            "0x000000000000000000000000ffd4ec9948aeb1e78390d71756870c1f7ea22f1f",
            "0x0000000000000000000000009ddfaca8183c41ad55329bdeed9f6a8d53168b1b"
          ],
          "data": "0x0000000000000000000000000000000000000000000000004563918244f40000",
          "blockHash": "0xdda6118e920f07170614de8c6a46e9e437cef5f0f5f54e9e8a4e6cacb6d2d72c",
          "blockNumber": "0x6d0186",
          "transactionHash": "0x74c040a0a6c21ed2a768d265077b655ba8d63ca510354e8fc70f9a42909f97e3",
          "transactionIndex": "0x231",
          "logIndex": "0x77",
          "removed": false
        },
        {
          "address": "0x779877a7b0d9e8603169ddbd7836e478b4624789",
          "topics": [
            "0xe19260aff97b920c7df27010903aeb9c8d2be5d310a2c67824cf3f15396e4c16",
            "0x000000000000000000000000ffd4ec9948aeb1e78390d71756870c1f7ea22f1f",
            "0x0000000000000000000000009ddfaca8183c41ad55329bdeed9f6a8d53168b1b"
          ],
          "data": "0x0000000000000000000000000000000000000000000000004563918244f400000000000000000000000000000000000000000000000000000000000000000040000000000000000000000000000000000000000000000000000000000000002080f130544417ff61c8f487e479fa5e368617351a84bf5f2be9a5075833fcc1ad",
          "blockHash": "0xdda6118e920f07170614de8c6a46e9e437cef5f0f5f54e9e8a4e6cacb6d2d72c",
          "blockNumber": "0x6d0186",
          "transactionHash": "0x74c040a0a6c21ed2a768d265077b655ba8d63ca510354e8fc70f9a42909f97e3",
          "transactionIndex": "0x231",
          "logIndex": "0x78",
          "removed": false
        },
        {
          "address": "0x9ddfaca8183c41ad55329bdeed9f6a8d53168b1b",
          "topics": [
            "0x1ced9348ff549fceab2ac57cd3a9de38edaaab274b725ee82c23e8fc8c4eec7a",
            "0x80f130544417ff61c8f487e479fa5e368617351a84bf5f2be9a5075833fcc1ad"
          ],
          "data": "0x0000000000000000000000000000000000000000000000001bc16d674ec800000000000000000000000000000000000000000000000000006124fee993bc0000",
          "blockHash": "0xdda6118e920f07170614de8c6a46e9e437cef5f0f5f54e9e8a4e6cacb6d2d72c",
          "blockNumber": "0x6d0186",
          "transactionHash": "0x74c040a0a6c21ed2a768d265077b655ba8d63ca510354e8fc70f9a42909f97e3",
          "transactionIndex": "0x231",
          "logIndex": "0x79",
          "removed": false
        }
      ],
      "logsBloom": "0x00000004000000000000000000000000000000000020000000000000020000000000000000000000000000000000000000000000000000000000000000000000000000000000000000000008000000000000000000000000000020000020000008000000000000000000000000000000000000000020000000000010000040000000000000000000020000410000800000000020000000000000000000000000020000000000000000000000010000000000000000000000000004000000000000000002000000000000000000000000040000000000000100000000040000000010000000000000800000000000000000000000000000000000000000000000",
      "type": "0x2",
      "transactionHash": "0x74c040a0a6c21ed2a768d265077b655ba8d63ca510354e8fc70f9a42909f97e3",
      "transactionIndex": "0x231",
      "blockHash": "0xdda6118e920f07170614de8c6a46e9e437cef5f0f5f54e9e8a4e6cacb6d2d72c",
      "blockNumber": "0x6d0186",
      "gasUsed": "0xf0e5",
      "effectiveGasPrice": "0x1db0d13b9",
      "from": "0xffd4ec9948aeb1e78390d71756870c1f7ea22f1f",
      "to": "0x779877a7b0d9e8603169ddbd7836e478b4624789",
      "contractAddress": null
    }
  ],
  "libraries": [],
  "pending": [],
  "returns": {},
  "timestamp": 1732462945,
  "chain": 11155111,
  "commit": "5dabb96"
}